S011000044656275672F6B6579622E73313922
S315200000000248854600F0A6F8FEE7C04600C001205B
S3152000001080B582B000AF78607B68042B1ED07B68E9
S31520000020042B20D87B68032B13D07B68032B1AD88C
S315200000307B68012B03D07B68022B05D013E00C4B89
S315200000401B6810221A700FE0094B1B6820221A70B9
S315200000500AE0074B1B6840221A7005E0044B1B6818
S3152000006080221A7000E0C046C046BD4602B080BD60
S315200000707001002080B582B000AF134B1A68FB1DBB
S3152000008012781A70FB1D1B780822134001D0042316
S3152000009015E0FB1D1B780422134001D003230EE03C
S315200000A0FB1D1B780222134001D0022307E0FB1D13
S315200000B01B780122134001D0012300E00023180001
S315200000C0BD4602B080BDC0467401002090B587B001
S315200000D000AF3B00144A13CA13C312681A600123E7
S315200000E07B6119E07B691800FFF792FFFFF7C2FFDB
S315200000F003003B613B69002B0BD00020FFF788FFF4
S315200001003B695A1E7B69013B9B00D3183A00D35C9E
S3152000011006E07B6901337B617B69042BE2DDFF23EB
S315200001201800BD4607B090BD7C01002080B500AF09
S31520000130064B1B681B889AB2044B1B6804490A436A
S3152000014092B21A80C046BD4680BDC04678010020C6
S315200001505555000090B583B000AFFFF7E7FFFC1DB3
S31520000160FFF7B4FF03002370F9E7C046140C0240E2
S31520000170150C0240110C0240020C02400102030A37
S311200001800405060B0708090C0E000F0DE5
S70520000000DA
